{
  "contractName": "CloudbricIpfsBridge",
  "abi": [
    {
      "constant": false,
      "inputs": [],
      "name": "renounceOwnership",
      "outputs": [],
      "payable": false,
      "stateMutability": "nonpayable",
      "type": "function"
    },
    {
      "constant": true,
      "inputs": [],
      "name": "owner",
      "outputs": [
        {
          "name": "",
          "type": "address"
        }
      ],
      "payable": false,
      "stateMutability": "view",
      "type": "function"
    },
    {
      "constant": false,
      "inputs": [
        {
          "name": "_newOwner",
          "type": "address"
        }
      ],
      "name": "transferOwnership",
      "outputs": [],
      "payable": false,
      "stateMutability": "nonpayable",
      "type": "function"
    },
    {
      "inputs": [
        {
          "name": "_ca",
          "type": "address"
        }
      ],
      "payable": false,
      "stateMutability": "nonpayable",
      "type": "constructor"
    },
    {
      "anonymous": false,
      "inputs": [
        {
          "indexed": true,
          "name": "from",
          "type": "address"
        },
        {
          "indexed": false,
          "name": "hash",
          "type": "bytes32"
        },
        {
          "indexed": false,
          "name": "hashFunction",
          "type": "uint8"
        },
        {
          "indexed": false,
          "name": "size",
          "type": "uint8"
        }
      ],
      "name": "GetWafBlackIp",
      "type": "event"
    },
    {
      "anonymous": false,
      "inputs": [
        {
          "indexed": true,
          "name": "from",
          "type": "address"
        },
        {
          "indexed": false,
          "name": "clbIndex",
          "type": "bytes32"
        },
        {
          "indexed": false,
          "name": "hash",
          "type": "bytes32"
        },
        {
          "indexed": false,
          "name": "hashFunction",
          "type": "uint8"
        },
        {
          "indexed": false,
          "name": "size",
          "type": "uint8"
        }
      ],
      "name": "AddWafBlackIp",
      "type": "event"
    },
    {
      "anonymous": false,
      "inputs": [
        {
          "indexed": true,
          "name": "previousOwner",
          "type": "address"
        }
      ],
      "name": "OwnershipRenounced",
      "type": "event"
    },
    {
      "anonymous": false,
      "inputs": [
        {
          "indexed": true,
          "name": "previousOwner",
          "type": "address"
        },
        {
          "indexed": true,
          "name": "newOwner",
          "type": "address"
        }
      ],
      "name": "OwnershipTransferred",
      "type": "event"
    },
    {
      "constant": true,
      "inputs": [],
      "name": "wafBlackIpsSize",
      "outputs": [
        {
          "name": "",
          "type": "uint256"
        }
      ],
      "payable": false,
      "stateMutability": "view",
      "type": "function"
    },
    {
      "constant": false,
      "inputs": [
        {
          "name": "_index",
          "type": "uint256"
        }
      ],
      "name": "getWafBlackIpAtIndex",
      "outputs": [
        {
          "name": "hash",
          "type": "bytes32"
        },
        {
          "name": "hash_funciton",
          "type": "uint8"
        },
        {
          "name": "size",
          "type": "uint8"
        }
      ],
      "payable": false,
      "stateMutability": "nonpayable",
      "type": "function"
    },
    {
      "constant": false,
      "inputs": [
        {
          "name": "_clbIndex",
          "type": "bytes32"
        }
      ],
      "name": "getWafBlackIpAtIndex",
      "outputs": [
        {
          "name": "hash",
          "type": "bytes32"
        },
        {
          "name": "hash_funciton",
          "type": "uint8"
        },
        {
          "name": "size",
          "type": "uint8"
        }
      ],
      "payable": false,
      "stateMutability": "nonpayable",
      "type": "function"
    },
    {
      "constant": false,
      "inputs": [
        {
          "name": "_clbIndex",
          "type": "bytes32"
        },
        {
          "name": "_hash",
          "type": "bytes32"
        },
        {
          "name": "_hashFunction",
          "type": "uint8"
        },
        {
          "name": "_size",
          "type": "uint8"
        }
      ],
      "name": "addWafBlackIp",
      "outputs": [
        {
          "name": "",
          "type": "bool"
        }
      ],
      "payable": false,
      "stateMutability": "nonpayable",
      "type": "function"
    }
  ],
  "bytecode": "0x608060405234801561001057600080fd5b50604051602080610fbf83398101806040528101908080519060200190929190505050336000806101000a81548173ffffffffffffffffffffffffffffffffffffffff021916908373ffffffffffffffffffffffffffffffffffffffff16021790555080600960006101000a81548173ffffffffffffffffffffffffffffffffffffffff021916908373ffffffffffffffffffffffffffffffffffffffff16021790555050610efb806100c46000396000f300608060405260043610610083576000357c0100000000000000000000000000000000000000000000000000000000900463ffffffff16806338f70b391461008857806361184802146100f9578063715018a61461015c5780638da5cb5b14610173578063b3685d90146101ca578063f2fde38b14610231578063fc82200e14610274575b600080fd5b34801561009457600080fd5b506100df60048036038101908080356000191690602001909291908035600019169060200190929190803560ff169060200190929190803560ff16906020019092919050505061029f565b604051808215151515815260200191505060405180910390f35b34801561010557600080fd5b50610124600480360381019080803590602001909291905050506106a0565b6040518084600019166000191681526020018360ff1660ff1681526020018260ff1660ff168152602001935050505060405180910390f35b34801561016857600080fd5b506101716108c5565b005b34801561017f57600080fd5b506101886109c7565b604051808273ffffffffffffffffffffffffffffffffffffffff1673ffffffffffffffffffffffffffffffffffffffff16815260200191505060405180910390f35b3480156101d657600080fd5b506101f960048036038101908080356000191690602001909291905050506109ec565b6040518084600019166000191681526020018360ff1660ff1681526020018260ff1660ff168152602001935050505060405180910390f35b34801561023d57600080fd5b50610272600480360381019080803573ffffffffffffffffffffffffffffffffffffffff169060200190929190505050610d5e565b005b34801561028057600080fd5b50610289610dc5565b6040518082815260200191505060405180910390f35b60008060009054906101000a900473ffffffffffffffffffffffffffffffffffffffff1673ffffffffffffffffffffffffffffffffffffffff163373ffffffffffffffffffffffffffffffffffffffff161415156102fc57600080fd5b8460007f01000000000000000000000000000000000000000000000000000000000000000281600060208110151561033057fe5b1a7f0100000000000000000000000000000000000000000000000000000000000000027effffffffffffffffffffffffffffffffffffffffffffffffffffffffffffff1916141515156103eb576040517f08c379a00000000000000000000000000000000000000000000000000000000081526004018080602001828103825260158152602001807f56616c696420696e6465782072657175697265642e000000000000000000000081525060200191505060405180910390fd5b6001800160008760001916600019168152602001908152602001600020606060405190810160405290816000820154600019166000191681526020016001820160009054906101000a900460ff1660ff1660ff1681526020016001820160019054906101000a900460ff1660ff1660ff168152505060007f0100000000000000000000000000000000000000000000000000000000000000028160000151600060208110151561049757fe5b1a7f0100000000000000000000000000000000000000000000000000000000000000027effffffffffffffffffffffffffffffffffffffffffffffffffffffffffffff19161415806104f157506000816020015160ff1614155b8061050457506000816040015160ff1614155b1515610578576040517f08c379a000000000000000000000000000000000000000000000000000000000815260040180806020018281038252600f8152602001807f416c7265616479206578697374732e000000000000000000000000000000000081525060200191505060405180910390fd5b606060405190810160405280876000191681526020018660ff1681526020018560ff1681525060018001600089600019166000191681526020019081526020016000206000820151816000019060001916905560208201518160010160006101000a81548160ff021916908360ff16021790555060408201518160010160016101000a81548160ff021916908360ff1602179055509050503373ffffffffffffffffffffffffffffffffffffffff167f1ab45cd7ee3af6097ba259a2d8bec9cab0a5d535b432acb14feff0a2e0894a7b8888888860405180856000191660001916815260200184600019166000191681526020018360ff1660ff1681526020018260ff1660ff16815260200194505050505060405180910390a2600192505050949350505050565b6000806000806000856001602060405190810160405290816000820180548060200260200160405190810160405280929190818152602001828054801561070a57602002820191906000526020600020905b815460001916815260200190600101908083116106f2575b505050505081525050806000015151821015156107b5576040517f08c379a000000000000000000000000000000000000000000000000000000000815260040180806020018281038252602b8152602001807f476976656e20696e6465782073686f756c64206c657373207468616e206c656e81526020017f677468206f66206461746100000000000000000000000000000000000000000081525060400191505060405180910390fd5b6001600001888154811015156107c757fe5b90600052602060002001549350600180016000856000191660001916815260200190815260200160002092503373ffffffffffffffffffffffffffffffffffffffff167f6b52d7e4965c746bbadc949c0fbd1a50045597a3f06e8ed83aff65800d590b0b84600001548560010160009054906101000a900460ff168660010160019054906101000a900460ff166040518084600019166000191681526020018360ff1660ff1681526020018260ff1660ff168152602001935050505060405180910390a282600001548360010160009054906101000a900460ff168460010160019054906101000a900460ff16965096509650505050509193909250565b6000809054906101000a900473ffffffffffffffffffffffffffffffffffffffff1673ffffffffffffffffffffffffffffffffffffffff163373ffffffffffffffffffffffffffffffffffffffff1614151561092057600080fd5b6000809054906101000a900473ffffffffffffffffffffffffffffffffffffffff1673ffffffffffffffffffffffffffffffffffffffff167ff8df31144d9c2f0f6b59d69b8b98abd5459d07f2742c4df920b25aae33c6482060405160405180910390a260008060006101000a81548173ffffffffffffffffffffffffffffffffffffffff021916908373ffffffffffffffffffffffffffffffffffffffff160217905550565b6000809054906101000a900473ffffffffffffffffffffffffffffffffffffffff1681565b6000806000808460007f010000000000000000000000000000000000000000000000000000000000000002816000602081101515610a2657fe5b1a7f0100000000000000000000000000000000000000000000000000000000000000027effffffffffffffffffffffffffffffffffffffffffffffffffffffffffffff191614151515610ae1576040517f08c379a00000000000000000000000000000000000000000000000000000000081526004018080602001828103825260158152602001807f56616c696420696e6465782072657175697265642e000000000000000000000081525060200191505060405180910390fd5b6001800160008760001916600019168152602001908152602001600020606060405190810160405290816000820154600019166000191681526020016001820160009054906101000a900460ff1660ff1660ff1681526020016001820160019054906101000a900460ff1660ff1660ff168152505060007f01000000000000000000000000000000000000000000000000000000000000000281600001516000602081101515610b8d57fe5b1a7f0100000000000000000000000000000000000000000000000000000000000000027effffffffffffffffffffffffffffffffffffffffffffffffffffffffffffff1916141580610be757506000816020015160ff1614155b80610bfa57506000816040015160ff1614155b1515610c6e576040517f08c379a000000000000000000000000000000000000000000000000000000000815260040180806020018281038252600f8152602001807f416c7265616479206578697374732e000000000000000000000000000000000081525060200191505060405180910390fd5b600180016000886000191660001916815260200190815260200160002092503373ffffffffffffffffffffffffffffffffffffffff167f6b52d7e4965c746bbadc949c0fbd1a50045597a3f06e8ed83aff65800d590b0b84600001548560010160009054906101000a900460ff168660010160019054906101000a900460ff166040518084600019166000191681526020018360ff1660ff1681526020018260ff1660ff168152602001935050505060405180910390a282600001548360010160009054906101000a900460ff168460010160019054906101000a900460ff169550955095505050509193909250565b6000809054906101000a900473ffffffffffffffffffffffffffffffffffffffff1673ffffffffffffffffffffffffffffffffffffffff163373ffffffffffffffffffffffffffffffffffffffff16141515610db957600080fd5b610dc281610dd5565b50565b6000600160000180549050905090565b600073ffffffffffffffffffffffffffffffffffffffff168173ffffffffffffffffffffffffffffffffffffffff1614151515610e1157600080fd5b8073ffffffffffffffffffffffffffffffffffffffff166000809054906101000a900473ffffffffffffffffffffffffffffffffffffffff1673ffffffffffffffffffffffffffffffffffffffff167f8be0079c531659141344cd1fd0a4f28419497f9722a3daafe3b4186f6b6457e060405160405180910390a3806000806101000a81548173ffffffffffffffffffffffffffffffffffffffff021916908373ffffffffffffffffffffffffffffffffffffffff160217905550505600a165627a7a72305820a264ca8fa6a3e22b181bb5a8d0f6d5111549e7eff4728664aece3c6505c38fde0029",
  "source": "pragma solidity 0.4.24;\n\nimport \"./open-zeppelin/Ownable.sol\";\nimport \"./CloudbricIpfsBridgeAuth.sol\";\n\n/**\n * @title CloudbricIpfsBridge\n * @dev The CloudbricIpfsBridge contract has an Ipfs CId(Contents Identifier) of\n * black ips detected by Cloudbric WAF and threat datas reported by user\n * and provides get functions for who is authenticated by CloudbricIpfsBridgeAuth contract.\n */\ncontract CloudbricIpfsBridge is Ownable {\n    /**\n    * @notice This contract uses Multihash Identifier which is used by\n    * Ipfs protocol.\n    */\n    struct Multihash {\n        bytes32 hash;\n        uint8 hashFunction;\n        uint8 size;\n    }\n\n    struct DataStorage  {\n        bytes32[] lookUpTable;\n        mapping(bytes32 => Multihash) multihash;\n    }\n\n    /**\n    * @dev prefix \"waf\" means these data is collected by Cloudbric WAF.\n    */\n    DataStorage private _wafBlackIps;\n\n    /**\n    * @dev prefix \"ur\" is abbreviation of user reported.\n    * that means these data is collected by user in Cloudbric Labs (labs.cloudbric.com)\n    */\n    DataStorage private _urBlackIps;\n    DataStorage private _urHackerWallets;\n    DataStorage private _urPhishingUrls;\n\n    CloudbricIpfsBridgeAuth cloudbricAuth;\n\n    event GetWafBlackIp(address indexed from, bytes32 hash, uint8 hashFunction, uint8 size);\n    event AddWafBlackIp(address indexed from, bytes32 clbIndex, bytes32 hash, uint8 hashFunction, uint8 size);\n\n\n    modifier onlyValidIndexAllowed(bytes32 _clbIndex) {\n        require(\n            _clbIndex[0] != 0,\n            \"Valid index required.\");\n        _;\n    }\n\n    modifier shouldLessThanLengthOfLUT(uint _index, DataStorage ds) {\n        require(\n            _index < ds.lookUpTable.length,\n            \"Given index should less than length of data\"\n        );\n        _;\n    }\n\n    modifier onlyUniqueMultihashAllowed(Multihash multihash) {\n        require(\n            multihash.hash[0] != 0 ||\n            multihash.hashFunction != 0 ||\n            multihash.size != 0,\n            \"Already exists.\"\n        );\n        _;\n    }\n\n    constructor(address _ca) public {\n        cloudbricAuth = CloudbricIpfsBridgeAuth(_ca);\n    }\n\n    /**\n    * @dev get length of Ipfs CIds of black ip data which is detected by Cloudbric WAF.\n    */\n    function wafBlackIpsSize()\n        public\n        view\n        returns (uint)\n    {\n        return _wafBlackIps.lookUpTable.length;\n    }\n\n    /**\n    * @dev get Ipfs CId of black ip data detected by Cloudbric WAF using index.\n    */\n    function getWafBlackIpAtIndex(uint _index)\n        public\n        shouldLessThanLengthOfLUT(_index, _wafBlackIps)\n        returns (bytes32 hash, uint8 hash_funciton, uint8 size)\n    {\n        bytes32 wafBlackIpIdx = _wafBlackIps.lookUpTable[_index];\n        Multihash storage multihash = _wafBlackIps.multihash[wafBlackIpIdx];\n        emit GetWafBlackIp(msg.sender, multihash.hash, multihash.hashFunction, multihash.size);\n        return (multihash.hash, multihash.hashFunction, multihash.size);\n    }\n\n    /**\n    * @dev get Ipfs CId of black ip data detected by Cloudbric WAF using Cloudbric Data Index.\n    * @param _clbIndex Cloudbric Index which is used by Cloudbric Labs or Cloudbric Database.\n    */\n    function getWafBlackIpAtIndex(bytes32 _clbIndex)\n        public\n        onlyValidIndexAllowed(_clbIndex)\n        onlyUniqueMultihashAllowed(_wafBlackIps.multihash[_clbIndex])\n        returns (bytes32 hash, uint8 hash_funciton, uint8 size)\n    {\n        Multihash storage multihash = _wafBlackIps.multihash[_clbIndex];\n        emit GetWafBlackIp(msg.sender, multihash.hash, multihash.hashFunction, multihash.size);\n        return (multihash.hash, multihash.hashFunction, multihash.size);\n    }\n\n    /**\n    * @dev add Ipfs CId of black ip data which is detected by Cloudbric WAF.\n    * @param _clbIndex The Index of Cloudbric ThreatDB.\n    * @param _hash The Ipfs hash which came from mutlihash identifier.\n    */\n    function addWafBlackIp(\n        bytes32 _clbIndex,\n        bytes32 _hash,\n        uint8 _hashFunction,\n        uint8 _size\n    )\n        public\n        onlyOwner\n        onlyValidIndexAllowed(_clbIndex)\n        onlyUniqueMultihashAllowed(_wafBlackIps.multihash[_clbIndex])\n        returns (bool)\n    {\n        _wafBlackIps.multihash[_clbIndex] = Multihash(_hash, _hashFunction, _size);\n        emit AddWafBlackIp(msg.sender, _clbIndex, _hash, _hashFunction, _size);\n        return true;\n    }\n}",
  "sourcePath": "/Users/aeharv/Dropbox/Cloudbric/projects/public_github/Cloudbric-Ipfs-Bridge-Contracts-Klaytn/contracts/CloudbricIpfsBridge.sol",
  "compiler": {
    "name": "solc",
    "version": "0.4.24+commit.e67f0147.Emscripten.clang"
  },
  "schemaVersion": "3.0.16",
  "updatedAt": "2019-09-26T08:12:12.607Z",
  "devdoc": {
    "methods": {
      "addWafBlackIp(bytes32,bytes32,uint8,uint8)": {
        "details": "add Ipfs CId of black ip data which is detected by Cloudbric WAF.",
        "params": {
          "_clbIndex": "The Index of Cloudbric ThreatDB.",
          "_hash": "The Ipfs hash which came from mutlihash identifier."
        }
      },
      "getWafBlackIpAtIndex(bytes32)": {
        "details": "get Ipfs CId of black ip data detected by Cloudbric WAF using Cloudbric Data Index.",
        "params": {
          "_clbIndex": "Cloudbric Index which is used by Cloudbric Labs or Cloudbric Database."
        }
      },
      "getWafBlackIpAtIndex(uint256)": {
        "details": "get Ipfs CId of black ip data detected by Cloudbric WAF using index."
      },
      "renounceOwnership()": {
        "details": "Allows the current owner to relinquish control of the contract."
      },
      "transferOwnership(address)": {
        "details": "Allows the current owner to transfer control of the contract to a newOwner.",
        "params": {
          "_newOwner": "The address to transfer ownership to."
        }
      },
      "wafBlackIpsSize()": {
        "details": "get length of Ipfs CIds of black ip data which is detected by Cloudbric WAF."
      }
    },
    "title": "CloudbricIpfsBridge"
  },
  "userdoc": {
    "methods": {
      "renounceOwnership()": {
        "notice": "Renouncing to ownership will leave the contract without an owner. It will not be possible to call the functions with the `onlyOwner` modifier anymore."
      }
    }
  }
}