{
  "contractName": "CloudbricIpfsBridge",
  "abi": [
    {
      "constant": true,
      "inputs": [
        {
          "name": "",
          "type": "bytes32"
        }
      ],
      "name": "userReportedPhishingUrlList",
      "outputs": [
        {
          "name": "hash",
          "type": "bytes32"
        },
        {
          "name": "hashFunction",
          "type": "uint8"
        },
        {
          "name": "size",
          "type": "uint8"
        }
      ],
      "payable": false,
      "stateMutability": "view",
      "type": "function"
    },
    {
      "constant": true,
      "inputs": [
        {
          "name": "",
          "type": "uint256"
        }
      ],
      "name": "urbiLookUpTable",
      "outputs": [
        {
          "name": "",
          "type": "bytes32"
        }
      ],
      "payable": false,
      "stateMutability": "view",
      "type": "function"
    },
    {
      "constant": true,
      "inputs": [],
      "name": "whiteList",
      "outputs": [
        {
          "name": "",
          "type": "address"
        }
      ],
      "payable": false,
      "stateMutability": "view",
      "type": "function"
    },
    {
      "constant": false,
      "inputs": [],
      "name": "renounceOwnership",
      "outputs": [],
      "payable": false,
      "stateMutability": "nonpayable",
      "type": "function"
    },
    {
      "constant": true,
      "inputs": [
        {
          "name": "",
          "type": "bytes32"
        }
      ],
      "name": "userReportedBlackIpList",
      "outputs": [
        {
          "name": "hash",
          "type": "bytes32"
        },
        {
          "name": "hashFunction",
          "type": "uint8"
        },
        {
          "name": "size",
          "type": "uint8"
        }
      ],
      "payable": false,
      "stateMutability": "view",
      "type": "function"
    },
    {
      "constant": true,
      "inputs": [],
      "name": "owner",
      "outputs": [
        {
          "name": "",
          "type": "address"
        }
      ],
      "payable": false,
      "stateMutability": "view",
      "type": "function"
    },
    {
      "constant": true,
      "inputs": [
        {
          "name": "",
          "type": "uint256"
        }
      ],
      "name": "urpuLookUpTable",
      "outputs": [
        {
          "name": "",
          "type": "bytes32"
        }
      ],
      "payable": false,
      "stateMutability": "view",
      "type": "function"
    },
    {
      "constant": true,
      "inputs": [
        {
          "name": "",
          "type": "uint256"
        }
      ],
      "name": "urhwLookUpTable",
      "outputs": [
        {
          "name": "",
          "type": "bytes32"
        }
      ],
      "payable": false,
      "stateMutability": "view",
      "type": "function"
    },
    {
      "constant": true,
      "inputs": [
        {
          "name": "",
          "type": "bytes32"
        }
      ],
      "name": "userReportedHackerWalletList",
      "outputs": [
        {
          "name": "hash",
          "type": "bytes32"
        },
        {
          "name": "hashFunction",
          "type": "uint8"
        },
        {
          "name": "size",
          "type": "uint8"
        }
      ],
      "payable": false,
      "stateMutability": "view",
      "type": "function"
    },
    {
      "constant": true,
      "inputs": [
        {
          "name": "",
          "type": "bytes32"
        }
      ],
      "name": "wafBlackIpList",
      "outputs": [
        {
          "name": "hash",
          "type": "bytes32"
        },
        {
          "name": "hashFunction",
          "type": "uint8"
        },
        {
          "name": "size",
          "type": "uint8"
        }
      ],
      "payable": false,
      "stateMutability": "view",
      "type": "function"
    },
    {
      "constant": true,
      "inputs": [
        {
          "name": "",
          "type": "uint256"
        }
      ],
      "name": "wbiLookUpTable",
      "outputs": [
        {
          "name": "",
          "type": "bytes32"
        }
      ],
      "payable": false,
      "stateMutability": "view",
      "type": "function"
    },
    {
      "constant": false,
      "inputs": [
        {
          "name": "_newOwner",
          "type": "address"
        }
      ],
      "name": "transferOwnership",
      "outputs": [],
      "payable": false,
      "stateMutability": "nonpayable",
      "type": "function"
    },
    {
      "inputs": [
        {
          "name": "whiteListContractAddress",
          "type": "address"
        }
      ],
      "payable": false,
      "stateMutability": "nonpayable",
      "type": "constructor"
    },
    {
      "anonymous": false,
      "inputs": [
        {
          "indexed": true,
          "name": "from",
          "type": "address"
        },
        {
          "indexed": false,
          "name": "clbIndex",
          "type": "bytes32"
        },
        {
          "indexed": false,
          "name": "hash",
          "type": "bytes32"
        },
        {
          "indexed": false,
          "name": "hashFunction",
          "type": "uint8"
        },
        {
          "indexed": false,
          "name": "size",
          "type": "uint8"
        }
      ],
      "name": "AddWafBlackIp",
      "type": "event"
    },
    {
      "anonymous": false,
      "inputs": [
        {
          "indexed": true,
          "name": "previousOwner",
          "type": "address"
        }
      ],
      "name": "OwnershipRenounced",
      "type": "event"
    },
    {
      "anonymous": false,
      "inputs": [
        {
          "indexed": true,
          "name": "previousOwner",
          "type": "address"
        },
        {
          "indexed": true,
          "name": "newOwner",
          "type": "address"
        }
      ],
      "name": "OwnershipTransferred",
      "type": "event"
    },
    {
      "constant": true,
      "inputs": [],
      "name": "wafBlackIpListSize",
      "outputs": [
        {
          "name": "",
          "type": "uint256"
        }
      ],
      "payable": false,
      "stateMutability": "view",
      "type": "function"
    },
    {
      "constant": true,
      "inputs": [
        {
          "name": "_index",
          "type": "uint256"
        }
      ],
      "name": "getWafBlackIpAtIndex",
      "outputs": [
        {
          "name": "hash",
          "type": "bytes32"
        },
        {
          "name": "hash_funciton",
          "type": "uint8"
        },
        {
          "name": "size",
          "type": "uint8"
        }
      ],
      "payable": false,
      "stateMutability": "view",
      "type": "function"
    },
    {
      "constant": true,
      "inputs": [
        {
          "name": "_clbIndex",
          "type": "bytes32"
        }
      ],
      "name": "getWafBlackIpAtClbIndex",
      "outputs": [
        {
          "name": "hash",
          "type": "bytes32"
        },
        {
          "name": "hash_funciton",
          "type": "uint8"
        },
        {
          "name": "size",
          "type": "uint8"
        }
      ],
      "payable": false,
      "stateMutability": "view",
      "type": "function"
    },
    {
      "constant": false,
      "inputs": [
        {
          "name": "_clbIndex",
          "type": "bytes32"
        },
        {
          "name": "_hash",
          "type": "bytes32"
        },
        {
          "name": "_hashFunction",
          "type": "uint8"
        },
        {
          "name": "_size",
          "type": "uint8"
        }
      ],
      "name": "addWafBlackIp",
      "outputs": [
        {
          "name": "",
          "type": "bool"
        }
      ],
      "payable": false,
      "stateMutability": "nonpayable",
      "type": "function"
    }
  ],
  "bytecode": "0x608060405234801561001057600080fd5b506040516020806110d683398101806040528101908080519060200190929190505050336000806101000a81548173ffffffffffffffffffffffffffffffffffffffff021916908373ffffffffffffffffffffffffffffffffffffffff16021790555080600960006101000a81548173ffffffffffffffffffffffffffffffffffffffff021916908373ffffffffffffffffffffffffffffffffffffffff16021790555050611012806100c46000396000f3006080604052600436106100e6576000357c0100000000000000000000000000000000000000000000000000000000900463ffffffff16806327a17b08146100eb5780632f1c004a1461015257806334a0f78d1461019b5780633544a864146101c657806338f70b391461021d578063611848021461028e578063715018a6146102f15780638a1cc8fc146103085780638bb742861461036f5780638da5cb5b146103d65780639f956ba21461042d578063ba98d87514610476578063c6e198c7146104bf578063e6b728cf14610526578063f173f63e1461058d578063f2fde38b146105d6575b600080fd5b3480156100f757600080fd5b5061011a6004803603810190808035600019169060200190929190505050610619565b6040518084600019166000191681526020018360ff1660ff1681526020018260ff1660ff168152602001935050505060405180910390f35b34801561015e57600080fd5b5061017d6004803603810190808035906020019092919050505061065d565b60405180826000191660001916815260200191505060405180910390f35b3480156101a757600080fd5b506101b0610680565b6040518082815260200191505060405180910390f35b3480156101d257600080fd5b506101db61068d565b604051808273ffffffffffffffffffffffffffffffffffffffff1673ffffffffffffffffffffffffffffffffffffffff16815260200191505060405180910390f35b34801561022957600080fd5b5061027460048036038101908080356000191690602001909291908035600019169060200190929190803560ff169060200190929190803560ff1690602001909291905050506106b3565b604051808215151515815260200191505060405180910390f35b34801561029a57600080fd5b506102b96004803603810190808035906020019092919050505061099f565b6040518084600019166000191681526020018360ff1660ff1681526020018260ff1660ff168152602001935050505060405180910390f35b3480156102fd57600080fd5b50610306610a94565b005b34801561031457600080fd5b506103376004803603810190808035600019169060200190929190505050610bff565b6040518084600019166000191681526020018360ff1660ff1681526020018260ff1660ff168152602001935050505060405180910390f35b34801561037b57600080fd5b5061039e6004803603810190808035600019169060200190929190505050610c59565b6040518084600019166000191681526020018360ff1660ff1681526020018260ff1660ff168152602001935050505060405180910390f35b3480156103e257600080fd5b506103eb610c9d565b604051808273ffffffffffffffffffffffffffffffffffffffff1673ffffffffffffffffffffffffffffffffffffffff16815260200191505060405180910390f35b34801561043957600080fd5b5061045860048036038101908080359060200190929190505050610cc2565b60405180826000191660001916815260200191505060405180910390f35b34801561048257600080fd5b506104a160048036038101908080359060200190929190505050610ce5565b60405180826000191660001916815260200191505060405180910390f35b3480156104cb57600080fd5b506104ee6004803603810190808035600019169060200190929190505050610d08565b6040518084600019166000191681526020018360ff1660ff1681526020018260ff1660ff168152602001935050505060405180910390f35b34801561053257600080fd5b506105556004803603810190808035600019169060200190929190505050610d4c565b6040518084600019166000191681526020018360ff1660ff1681526020018260ff1660ff168152602001935050505060405180910390f35b34801561059957600080fd5b506105b860048036038101908080359060200190929190505050610d90565b60405180826000191660001916815260200191505060405180910390f35b3480156105e257600080fd5b50610617600480360381019080803573ffffffffffffffffffffffffffffffffffffffff169060200190929190505050610db3565b005b60076020528060005260406000206000915090508060000154908060010160009054906101000a900460ff16908060010160019054906101000a900460ff16905083565b60048181548110151561066c57fe5b906000526020600020016000915090505481565b6000600280549050905090565b600960009054906101000a900473ffffffffffffffffffffffffffffffffffffffff1681565b600033600960009054906101000a900473ffffffffffffffffffffffffffffffffffffffff1673ffffffffffffffffffffffffffffffffffffffff16636f9170f6826040518263ffffffff167c0100000000000000000000000000000000000000000000000000000000028152600401808273ffffffffffffffffffffffffffffffffffffffff1673ffffffffffffffffffffffffffffffffffffffff168152602001915050602060405180830381600087803b15801561077357600080fd5b505af1158015610787573d6000803e3d6000fd5b505050506040513d602081101561079d57600080fd5b81019080805190602001909291905050501515610848576040517f08c379a00000000000000000000000000000000000000000000000000000000081526004018080602001828103825260268152602001807f4f6e6c79207768697465206c6973746564206163636f756e742063616e20616481526020017f642064617461000000000000000000000000000000000000000000000000000081525060400191505060405180910390fd5b6002869080600181540180825580915050906001820390600052602060002001600090919290919091509060001916905550606060405190810160405280866000191681526020018560ff1681526020018460ff168152506001600088600019166000191681526020019081526020016000206000820151816000019060001916905560208201518160010160006101000a81548160ff021916908360ff16021790555060408201518160010160016101000a81548160ff021916908360ff1602179055509050503373ffffffffffffffffffffffffffffffffffffffff167f1ab45cd7ee3af6097ba259a2d8bec9cab0a5d535b432acb14feff0a2e0894a7b8787878760405180856000191660001916815260200184600019166000191681526020018360ff1660ff1681526020018260ff1660ff16815260200194505050505060405180910390a26001915050949350505050565b60008060008060006002868154811015156109b657fe5b9060005260206000200154915060028054905086101515610a3f576040517f08c379a000000000000000000000000000000000000000000000000000000000815260040180806020018281038252601c8152602001807f476976656e20696e646578206973206f7574206f6620626f756e642e0000000081525060200191505060405180910390fd5b600160008360001916600019168152602001908152602001600020905080600001548160010160009054906101000a900460ff168260010160019054906101000a900460ff1694509450945050509193909250565b6000809054906101000a900473ffffffffffffffffffffffffffffffffffffffff1673ffffffffffffffffffffffffffffffffffffffff163373ffffffffffffffffffffffffffffffffffffffff16141515610b58576040517f08c379a00000000000000000000000000000000000000000000000000000000081526004018080602001828103825260168152602001807f4f6e6c79206f776e657220697320616c6c6f7765642e0000000000000000000081525060200191505060405180910390fd5b6000809054906101000a900473ffffffffffffffffffffffffffffffffffffffff1673ffffffffffffffffffffffffffffffffffffffff167ff8df31144d9c2f0f6b59d69b8b98abd5459d07f2742c4df920b25aae33c6482060405160405180910390a260008060006101000a81548173ffffffffffffffffffffffffffffffffffffffff021916908373ffffffffffffffffffffffffffffffffffffffff160217905550565b600080600080600160008660001916600019168152602001908152602001600020905080600001548160010160009054906101000a900460ff168260010160019054906101000a900460ff16935093509350509193909250565b60036020528060005260406000206000915090508060000154908060010160009054906101000a900460ff16908060010160019054906101000a900460ff16905083565b6000809054906101000a900473ffffffffffffffffffffffffffffffffffffffff1681565b600881815481101515610cd157fe5b906000526020600020016000915090505481565b600681815481101515610cf457fe5b906000526020600020016000915090505481565b60056020528060005260406000206000915090508060000154908060010160009054906101000a900460ff16908060010160019054906101000a900460ff16905083565b60016020528060005260406000206000915090508060000154908060010160009054906101000a900460ff16908060010160019054906101000a900460ff16905083565b600281815481101515610d9f57fe5b906000526020600020016000915090505481565b6000809054906101000a900473ffffffffffffffffffffffffffffffffffffffff1673ffffffffffffffffffffffffffffffffffffffff163373ffffffffffffffffffffffffffffffffffffffff16141515610e77576040517f08c379a00000000000000000000000000000000000000000000000000000000081526004018080602001828103825260168152602001807f4f6e6c79206f776e657220697320616c6c6f7765642e0000000000000000000081525060200191505060405180910390fd5b610e8081610e83565b50565b600073ffffffffffffffffffffffffffffffffffffffff168173ffffffffffffffffffffffffffffffffffffffff1614151515610f28576040517f08c379a00000000000000000000000000000000000000000000000000000000081526004018080602001828103825260178152602001807f56616c696420616464726573732072657175697265642e00000000000000000081525060200191505060405180910390fd5b8073ffffffffffffffffffffffffffffffffffffffff166000809054906101000a900473ffffffffffffffffffffffffffffffffffffffff1673ffffffffffffffffffffffffffffffffffffffff167f8be0079c531659141344cd1fd0a4f28419497f9722a3daafe3b4186f6b6457e060405160405180910390a3806000806101000a81548173ffffffffffffffffffffffffffffffffffffffff021916908373ffffffffffffffffffffffffffffffffffffffff160217905550505600a165627a7a72305820eebac5c6e65b6421ced79224f5639046153d59abc2c67b1af4e278a4e5853dda0029",
  "source": "pragma solidity 0.4.24;\n\nimport \"./open-zeppelin/Ownable.sol\";\nimport \"./WhiteList.sol\";\n\n/**\n * @title CloudbricIpfsBridge\n * @dev The CloudbricIpfsBridge contract has an Ipfs CId(Contents Identifier) of\n * black ips detected by Cloudbric WAF and threat datas reported by user\n * and provides get functions for who is authenticated by CloudbricIpfsBridgeAuth contract.\n */\ncontract CloudbricIpfsBridge is Ownable {\n    /**\n    * @notice This contract uses Multihash Identifier which is used by\n    * Ipfs protocol.\n    */\n    struct Multihash {\n        bytes32 hash;\n        uint8 hashFunction;\n        uint8 size;\n    }\n\n    /**\n    * @dev prefix \"waf\" means these data is collected by Cloudbric WAF.\n    */\n    mapping(bytes32 => Multihash) public wafBlackIpList;\n    bytes32[] public wbiLookUpTable;\n\n    /**\n    * @dev \"userRepotred\" means these data is collected by user in Cloudbric Labs (labs.cloudbric.com)\n    */\n    mapping(bytes32 => Multihash) public userReportedBlackIpList;\n    bytes32[] public urbiLookUpTable;\n\n    mapping(bytes32 => Multihash) public userReportedHackerWalletList;\n    bytes32[] public urhwLookUpTable;\n\n    mapping(bytes32 => Multihash) public userReportedPhishingUrlList;\n    bytes32[] public urpuLookUpTable;\n\n    WhiteList public whiteList;\n\n    event AddWafBlackIp(address indexed from, bytes32 clbIndex, bytes32 hash, uint8 hashFunction, uint8 size);\n\n    modifier onlyWhiteListed(address addr) {\n        require(\n            whiteList.isWhiteListed(addr),\n            \"Only white listed account can add data\"\n        );\n        _;\n    }\n\n    constructor(address whiteListContractAddress) public {\n        whiteList = WhiteList(whiteListContractAddress);\n    }\n\n    /**\n    * @dev get length of Ipfs CIds of black ip data which is detected by Cloudbric WAF.\n    */\n    function wafBlackIpListSize()\n        public\n        view\n        returns (uint)\n    {\n        return wbiLookUpTable.length;\n    }\n\n    /**\n    * @dev get Ipfs CId of black ip data detected by Cloudbric WAF using index.\n    * @notice you should know size of lookup table.\n    */\n    function getWafBlackIpAtIndex(uint _index)\n        public\n        view\n        returns (bytes32 hash, uint8 hash_funciton, uint8 size)\n    {\n        bytes32 wafBlackIpIdx = wbiLookUpTable[_index];\n        require(\n            _index < wbiLookUpTable.length,\n            \"Given index is out of bound.\"\n        );\n\n        Multihash storage multihash = wafBlackIpList[wafBlackIpIdx];\n        return (multihash.hash, multihash.hashFunction, multihash.size);\n    }\n\n    /**\n    * @dev get Ipfs CId of black ip data detected by Cloudbric WAF using Cloudbric Data Index.\n    * @param _clbIndex Cloudbric Index which is used by Cloudbric Labs or Cloudbric Database.\n    */\n    function getWafBlackIpAtClbIndex(bytes32 _clbIndex)\n        public\n        view\n        returns (bytes32 hash, uint8 hash_funciton, uint8 size)\n    {\n        Multihash storage multihash = wafBlackIpList[_clbIndex];\n        return (multihash.hash, multihash.hashFunction, multihash.size);\n    }\n\n    /**\n    * @dev add Ipfs CId of black ip data which is detected by Cloudbric WAF.\n    * @param _clbIndex The Index of Cloudbric ThreatDB.\n    * @param _hash The Ipfs hash which came from mutlihash identifier.\n    */\n    function addWafBlackIp(\n        bytes32 _clbIndex,\n        bytes32 _hash,\n        uint8 _hashFunction,\n        uint8 _size\n    )\n        public\n        onlyWhiteListed(msg.sender)\n        returns (bool)\n    {\n        wbiLookUpTable.push(_clbIndex);\n        wafBlackIpList[_clbIndex] = Multihash(_hash, _hashFunction, _size);\n        emit AddWafBlackIp(msg.sender, _clbIndex, _hash, _hashFunction, _size);\n        return true;\n    }\n}",
  "sourcePath": "/Users/aeharv/Dropbox/Cloudbric/projects/public_github/Cloudbric-Ipfs-Bridge-Contracts-Klaytn/contracts/CloudbricIpfsBridge.sol",
  "compiler": {
    "name": "solc",
    "version": "0.4.24+commit.e67f0147.Emscripten.clang"
  },
  "schemaVersion": "3.0.16",
  "updatedAt": "2019-10-06T05:49:44.621Z",
  "devdoc": {
    "methods": {
      "addWafBlackIp(bytes32,bytes32,uint8,uint8)": {
        "details": "add Ipfs CId of black ip data which is detected by Cloudbric WAF.",
        "params": {
          "_clbIndex": "The Index of Cloudbric ThreatDB.",
          "_hash": "The Ipfs hash which came from mutlihash identifier."
        }
      },
      "getWafBlackIpAtClbIndex(bytes32)": {
        "details": "get Ipfs CId of black ip data detected by Cloudbric WAF using Cloudbric Data Index.",
        "params": {
          "_clbIndex": "Cloudbric Index which is used by Cloudbric Labs or Cloudbric Database."
        }
      },
      "getWafBlackIpAtIndex(uint256)": {
        "details": "get Ipfs CId of black ip data detected by Cloudbric WAF using index."
      },
      "renounceOwnership()": {
        "details": "Allows the current owner to relinquish control of the contract."
      },
      "transferOwnership(address)": {
        "details": "Allows the current owner to transfer control of the contract to a newOwner.",
        "params": {
          "_newOwner": "The address to transfer ownership to."
        }
      },
      "wafBlackIpListSize()": {
        "details": "get length of Ipfs CIds of black ip data which is detected by Cloudbric WAF."
      }
    },
    "title": "CloudbricIpfsBridge"
  },
  "userdoc": {
    "methods": {
      "getWafBlackIpAtIndex(uint256)": {
        "notice": "you should know size of lookup table."
      },
      "renounceOwnership()": {
        "notice": "Renouncing to ownership will leave the contract without an owner. It will not be possible to call the functions with the `onlyOwner` modifier anymore."
      }
    }
  }
}