{
  "contractName": "CloudbricWafBlackIpStorage",
  "abi": [
    {
      "constant": true,
      "inputs": [],
      "name": "whiteList",
      "outputs": [
        {
          "name": "",
          "type": "address"
        }
      ],
      "payable": false,
      "stateMutability": "view",
      "type": "function"
    },
    {
      "constant": false,
      "inputs": [],
      "name": "renounceOwnership",
      "outputs": [],
      "payable": false,
      "stateMutability": "nonpayable",
      "type": "function"
    },
    {
      "constant": true,
      "inputs": [],
      "name": "owner",
      "outputs": [
        {
          "name": "",
          "type": "address"
        }
      ],
      "payable": false,
      "stateMutability": "view",
      "type": "function"
    },
    {
      "constant": true,
      "inputs": [
        {
          "name": "",
          "type": "bytes32"
        }
      ],
      "name": "wafBlackIpList",
      "outputs": [
        {
          "name": "hash",
          "type": "bytes32"
        },
        {
          "name": "hashFunction",
          "type": "uint8"
        },
        {
          "name": "size",
          "type": "uint8"
        },
        {
          "name": "isExist",
          "type": "bool"
        }
      ],
      "payable": false,
      "stateMutability": "view",
      "type": "function"
    },
    {
      "constant": true,
      "inputs": [
        {
          "name": "",
          "type": "uint256"
        }
      ],
      "name": "wbiLookUpTable",
      "outputs": [
        {
          "name": "",
          "type": "bytes32"
        }
      ],
      "payable": false,
      "stateMutability": "view",
      "type": "function"
    },
    {
      "constant": false,
      "inputs": [
        {
          "name": "_newOwner",
          "type": "address"
        }
      ],
      "name": "transferOwnership",
      "outputs": [],
      "payable": false,
      "stateMutability": "nonpayable",
      "type": "function"
    },
    {
      "inputs": [
        {
          "name": "whiteListContractAddress",
          "type": "address"
        }
      ],
      "payable": false,
      "stateMutability": "nonpayable",
      "type": "constructor"
    },
    {
      "anonymous": false,
      "inputs": [
        {
          "indexed": true,
          "name": "from",
          "type": "address"
        },
        {
          "indexed": false,
          "name": "clbIndex",
          "type": "bytes32"
        },
        {
          "indexed": false,
          "name": "hash",
          "type": "bytes32"
        },
        {
          "indexed": false,
          "name": "hashFunction",
          "type": "uint8"
        },
        {
          "indexed": false,
          "name": "size",
          "type": "uint8"
        }
      ],
      "name": "AddWafBlackIp",
      "type": "event"
    },
    {
      "anonymous": false,
      "inputs": [
        {
          "indexed": true,
          "name": "previousOwner",
          "type": "address"
        }
      ],
      "name": "OwnershipRenounced",
      "type": "event"
    },
    {
      "anonymous": false,
      "inputs": [
        {
          "indexed": true,
          "name": "previousOwner",
          "type": "address"
        },
        {
          "indexed": true,
          "name": "newOwner",
          "type": "address"
        }
      ],
      "name": "OwnershipTransferred",
      "type": "event"
    },
    {
      "constant": true,
      "inputs": [],
      "name": "wafBlackIpListSize",
      "outputs": [
        {
          "name": "",
          "type": "uint256"
        }
      ],
      "payable": false,
      "stateMutability": "view",
      "type": "function"
    },
    {
      "constant": true,
      "inputs": [
        {
          "name": "_index",
          "type": "uint256"
        }
      ],
      "name": "getWafBlackIpAtIndex",
      "outputs": [
        {
          "name": "hash",
          "type": "bytes32"
        },
        {
          "name": "hash_function",
          "type": "uint8"
        },
        {
          "name": "size",
          "type": "uint8"
        }
      ],
      "payable": false,
      "stateMutability": "view",
      "type": "function"
    },
    {
      "constant": true,
      "inputs": [
        {
          "name": "_clbIndex",
          "type": "bytes32"
        }
      ],
      "name": "getWafBlackIpAtClbIndex",
      "outputs": [
        {
          "name": "hash",
          "type": "bytes32"
        },
        {
          "name": "hash_function",
          "type": "uint8"
        },
        {
          "name": "size",
          "type": "uint8"
        }
      ],
      "payable": false,
      "stateMutability": "view",
      "type": "function"
    },
    {
      "constant": false,
      "inputs": [
        {
          "name": "_clbIndex",
          "type": "bytes32"
        },
        {
          "name": "_hash",
          "type": "bytes32"
        },
        {
          "name": "_hashFunction",
          "type": "uint8"
        },
        {
          "name": "_size",
          "type": "uint8"
        }
      ],
      "name": "addWafBlackIp",
      "outputs": [
        {
          "name": "",
          "type": "bool"
        }
      ],
      "payable": false,
      "stateMutability": "nonpayable",
      "type": "function"
    }
  ],
  "bytecode": "0x608060405234801561001057600080fd5b50604051602080610e6583398101806040528101908080519060200190929190505050336000806101000a81548173ffffffffffffffffffffffffffffffffffffffff021916908373ffffffffffffffffffffffffffffffffffffffff16021790555080600360006101000a81548173ffffffffffffffffffffffffffffffffffffffff021916908373ffffffffffffffffffffffffffffffffffffffff16021790555050610da1806100c46000396000f3006080604052600436106100a4576000357c0100000000000000000000000000000000000000000000000000000000900463ffffffff16806334a0f78d146100a95780633544a864146100d457806338f70b391461012b578063611848021461019c578063715018a6146101ff5780638a1cc8fc146102165780638da5cb5b1461027d578063e6b728cf146102d4578063f173f63e14610346578063f2fde38b1461038f575b600080fd5b3480156100b557600080fd5b506100be6103d2565b6040518082815260200191505060405180910390f35b3480156100e057600080fd5b506100e96103df565b604051808273ffffffffffffffffffffffffffffffffffffffff1673ffffffffffffffffffffffffffffffffffffffff16815260200191505060405180910390f35b34801561013757600080fd5b5061018260048036038101908080356000191690602001909291908035600019169060200190929190803560ff169060200190929190803560ff169060200190929190505050610405565b604051808215151515815260200191505060405180910390f35b3480156101a857600080fd5b506101c7600480360381019080803590602001909291905050506107e9565b6040518084600019166000191681526020018360ff1660ff1681526020018260ff1660ff168152602001935050505060405180910390f35b34801561020b57600080fd5b506102146108de565b005b34801561022257600080fd5b506102456004803603810190808035600019169060200190929190505050610a49565b6040518084600019166000191681526020018360ff1660ff1681526020018260ff1660ff168152602001935050505060405180910390f35b34801561028957600080fd5b50610292610aa3565b604051808273ffffffffffffffffffffffffffffffffffffffff1673ffffffffffffffffffffffffffffffffffffffff16815260200191505060405180910390f35b3480156102e057600080fd5b506103036004803603810190808035600019169060200190929190505050610ac8565b6040518085600019166000191681526020018460ff1660ff1681526020018360ff1660ff1681526020018215151515815260200194505050505060405180910390f35b34801561035257600080fd5b5061037160048036038101908080359060200190929190505050610b1f565b60405180826000191660001916815260200191505060405180910390f35b34801561039b57600080fd5b506103d0600480360381019080803573ffffffffffffffffffffffffffffffffffffffff169060200190929190505050610b42565b005b6000600280549050905090565b600360009054906101000a900473ffffffffffffffffffffffffffffffffffffffff1681565b600033600360009054906101000a900473ffffffffffffffffffffffffffffffffffffffff1673ffffffffffffffffffffffffffffffffffffffff16636f9170f6826040518263ffffffff167c0100000000000000000000000000000000000000000000000000000000028152600401808273ffffffffffffffffffffffffffffffffffffffff1673ffffffffffffffffffffffffffffffffffffffff168152602001915050602060405180830381600087803b1580156104c557600080fd5b505af11580156104d9573d6000803e3d6000fd5b505050506040513d60208110156104ef57600080fd5b8101908080519060200190929190505050151561059a576040517f08c379a00000000000000000000000000000000000000000000000000000000081526004018080602001828103825260268152602001807f4f6e6c79207768697465206c6973746564206163636f756e742063616e20616481526020017f642064617461000000000000000000000000000000000000000000000000000081525060400191505060405180910390fd5b856000151560016000836000191660001916815260200190815260200160002060010160029054906101000a900460ff161515141515610668576040517f08c379a00000000000000000000000000000000000000000000000000000000081526004018080602001828103825260218152602001807f4f6e6c7920756e6971756520636c62496e6465782063616e206265206164646581526020017f640000000000000000000000000000000000000000000000000000000000000081525060400191505060405180910390fd5b6002879080600181540180825580915050906001820390600052602060002001600090919290919091509060001916905550608060405190810160405280876000191681526020018660ff1681526020018560ff168152602001600115158152506001600089600019166000191681526020019081526020016000206000820151816000019060001916905560208201518160010160006101000a81548160ff021916908360ff16021790555060408201518160010160016101000a81548160ff021916908360ff16021790555060608201518160010160026101000a81548160ff0219169083151502179055509050503373ffffffffffffffffffffffffffffffffffffffff167f1ab45cd7ee3af6097ba259a2d8bec9cab0a5d535b432acb14feff0a2e0894a7b8888888860405180856000191660001916815260200184600019166000191681526020018360ff1660ff1681526020018260ff1660ff16815260200194505050505060405180910390a2600192505050949350505050565b600080600080600060028681548110151561080057fe5b9060005260206000200154915060028054905086101515610889576040517f08c379a000000000000000000000000000000000000000000000000000000000815260040180806020018281038252601c8152602001807f476976656e20696e646578206973206f7574206f6620626f756e642e0000000081525060200191505060405180910390fd5b600160008360001916600019168152602001908152602001600020905080600001548160010160009054906101000a900460ff168260010160019054906101000a900460ff1694509450945050509193909250565b6000809054906101000a900473ffffffffffffffffffffffffffffffffffffffff1673ffffffffffffffffffffffffffffffffffffffff163373ffffffffffffffffffffffffffffffffffffffff161415156109a2576040517f08c379a00000000000000000000000000000000000000000000000000000000081526004018080602001828103825260168152602001807f4f6e6c79206f776e657220697320616c6c6f7765642e0000000000000000000081525060200191505060405180910390fd5b6000809054906101000a900473ffffffffffffffffffffffffffffffffffffffff1673ffffffffffffffffffffffffffffffffffffffff167ff8df31144d9c2f0f6b59d69b8b98abd5459d07f2742c4df920b25aae33c6482060405160405180910390a260008060006101000a81548173ffffffffffffffffffffffffffffffffffffffff021916908373ffffffffffffffffffffffffffffffffffffffff160217905550565b600080600080600160008660001916600019168152602001908152602001600020905080600001548160010160009054906101000a900460ff168260010160019054906101000a900460ff16935093509350509193909250565b6000809054906101000a900473ffffffffffffffffffffffffffffffffffffffff1681565b60016020528060005260406000206000915090508060000154908060010160009054906101000a900460ff16908060010160019054906101000a900460ff16908060010160029054906101000a900460ff16905084565b600281815481101515610b2e57fe5b906000526020600020016000915090505481565b6000809054906101000a900473ffffffffffffffffffffffffffffffffffffffff1673ffffffffffffffffffffffffffffffffffffffff163373ffffffffffffffffffffffffffffffffffffffff16141515610c06576040517f08c379a00000000000000000000000000000000000000000000000000000000081526004018080602001828103825260168152602001807f4f6e6c79206f776e657220697320616c6c6f7765642e0000000000000000000081525060200191505060405180910390fd5b610c0f81610c12565b50565b600073ffffffffffffffffffffffffffffffffffffffff168173ffffffffffffffffffffffffffffffffffffffff1614151515610cb7576040517f08c379a00000000000000000000000000000000000000000000000000000000081526004018080602001828103825260178152602001807f56616c696420616464726573732072657175697265642e00000000000000000081525060200191505060405180910390fd5b8073ffffffffffffffffffffffffffffffffffffffff166000809054906101000a900473ffffffffffffffffffffffffffffffffffffffff1673ffffffffffffffffffffffffffffffffffffffff167f8be0079c531659141344cd1fd0a4f28419497f9722a3daafe3b4186f6b6457e060405160405180910390a3806000806101000a81548173ffffffffffffffffffffffffffffffffffffffff021916908373ffffffffffffffffffffffffffffffffffffffff160217905550505600a165627a7a723058205d54fd096796465f12c33a50c1f3dd5fc06a35752e0c0f012b1898afa2215c460029",
  "source": "pragma solidity 0.4.24;\n\nimport \"./open-zeppelin/Ownable.sol\";\nimport \"./WhiteList.sol\";\n\n/**\n * @title CloudbricWafBlackIpStorage\n * @dev The CloudbricIpfsBridge contract has an Ipfs CId(Contents Identifier) of\n * black ips detected by Cloudbric WAF.\n */\ncontract CloudbricWafBlackIpStorage is Ownable {\n    /**\n    * @notice This contract uses Multihash Identifier which is used by IPFS.\n    */\n    struct Multihash {\n        bytes32 hash;\n        uint8 hashFunction;\n        uint8 size;\n        bool isExist;\n    }\n\n    /**\n    * @dev prefix \"waf\" means these data is collected by Cloudbric WAF.\n    */\n    mapping(bytes32 => Multihash) public wafBlackIpList;\n    bytes32[] public wbiLookUpTable;\n\n    WhiteList public whiteList;\n\n    event AddWafBlackIp(address indexed from, bytes32 clbIndex, bytes32 hash, uint8 hashFunction, uint8 size);\n\n    modifier onlyWhiteListed(address _addr) {\n        require(\n            whiteList.isWhiteListed(_addr),\n            \"Only white listed account can add data\"\n        );\n        _;\n    }\n\n    modifier onlyUniqueClbIndexAllowed(bytes32 _clbIndex) {\n        require(\n            wafBlackIpList[_clbIndex].isExist == false,\n            \"Only unique clbIndex can be added\"\n        );\n        _;\n    }\n\n    constructor(address whiteListContractAddress) public {\n        whiteList = WhiteList(whiteListContractAddress);\n    }\n\n    /**\n    * @dev get length of Ipfs CIds of black ip data which is detected by Cloudbric WAF.\n    */\n    function wafBlackIpListSize()\n        public\n        view\n        returns (uint)\n    {\n        return wbiLookUpTable.length;\n    }\n\n    /**\n    * @dev get Ipfs CId of black ip data detected by Cloudbric WAF using index.\n    * @notice you should know size of lookup table.\n    */\n    function getWafBlackIpAtIndex(uint _index)\n        public\n        view\n        returns (bytes32 hash, uint8 hash_function, uint8 size)\n    {\n        bytes32 wafBlackIpIdx = wbiLookUpTable[_index];\n        require(\n            _index < wbiLookUpTable.length,\n            \"Given index is out of bound.\"\n        );\n\n        Multihash storage multihash = wafBlackIpList[wafBlackIpIdx];\n        return (multihash.hash, multihash.hashFunction, multihash.size);\n    }\n\n    /**\n    * @dev get Ipfs CId of black ip data detected by Cloudbric WAF using Cloudbric Data Index.\n    * @param _clbIndex Cloudbric Index which is used by Cloudbric Labs or Cloudbric Database.\n    */\n    function getWafBlackIpAtClbIndex(bytes32 _clbIndex)\n        public\n        view\n        returns (bytes32 hash, uint8 hash_function, uint8 size)\n    {\n        Multihash storage multihash = wafBlackIpList[_clbIndex];\n        return (multihash.hash, multihash.hashFunction, multihash.size);\n    }\n\n    /**\n    * @dev add Ipfs CId of black ip data which is detected by Cloudbric WAF.\n    * @param _clbIndex The Index of Cloudbric ThreatDB.\n    * @param _hash The Ipfs hash which came from mutlihash identifier.\n    */\n    function addWafBlackIp(\n        bytes32 _clbIndex,\n        bytes32 _hash,\n        uint8 _hashFunction,\n        uint8 _size\n    )\n        public\n        onlyWhiteListed(msg.sender)\n        onlyUniqueClbIndexAllowed(_clbIndex)\n        returns (bool)\n    {\n        wbiLookUpTable.push(_clbIndex);\n        wafBlackIpList[_clbIndex] = Multihash(_hash, _hashFunction, _size, true);\n        emit AddWafBlackIp(msg.sender, _clbIndex, _hash, _hashFunction, _size);\n        return true;\n    }\n}",
  "sourcePath": "/Users/aeharv/Dropbox/Cloudbric/projects/public_github/Cloudbric-Ipfs-Bridge-Contracts-Klaytn/contracts/CloudbricWafBlackIpStorage.sol",
  "compiler": {
    "name": "solc",
    "version": "0.4.24+commit.e67f0147.Emscripten.clang"
  },
  "schemaVersion": "3.0.16",
  "updatedAt": "2019-10-09T17:58:49.932Z",
  "devdoc": {
    "methods": {
      "addWafBlackIp(bytes32,bytes32,uint8,uint8)": {
        "details": "add Ipfs CId of black ip data which is detected by Cloudbric WAF.",
        "params": {
          "_clbIndex": "The Index of Cloudbric ThreatDB.",
          "_hash": "The Ipfs hash which came from mutlihash identifier."
        }
      },
      "getWafBlackIpAtClbIndex(bytes32)": {
        "details": "get Ipfs CId of black ip data detected by Cloudbric WAF using Cloudbric Data Index.",
        "params": {
          "_clbIndex": "Cloudbric Index which is used by Cloudbric Labs or Cloudbric Database."
        }
      },
      "getWafBlackIpAtIndex(uint256)": {
        "details": "get Ipfs CId of black ip data detected by Cloudbric WAF using index."
      },
      "renounceOwnership()": {
        "details": "Allows the current owner to relinquish control of the contract."
      },
      "transferOwnership(address)": {
        "details": "Allows the current owner to transfer control of the contract to a newOwner.",
        "params": {
          "_newOwner": "The address to transfer ownership to."
        }
      },
      "wafBlackIpListSize()": {
        "details": "get length of Ipfs CIds of black ip data which is detected by Cloudbric WAF."
      }
    },
    "title": "CloudbricWafBlackIpStorage"
  },
  "userdoc": {
    "methods": {
      "getWafBlackIpAtIndex(uint256)": {
        "notice": "you should know size of lookup table."
      },
      "renounceOwnership()": {
        "notice": "Renouncing to ownership will leave the contract without an owner. It will not be possible to call the functions with the `onlyOwner` modifier anymore."
      }
    }
  }
}